S010000056353020746573742E7372656379
S11300000C9434000C9410030C944F030C94C00013
S11300100C94E5000C940A010C9451000C942F01EB
S11300200C9454010C9479010C949E010C94C3011A
S11300300C94E8010C940D020C9432020C947C0292
S11300400C9457020C9459030C94B6030C94DB03E0
S11300500C9400040C94A1020C9476000C94C60237
S11300600C94EB020C949B0011241FBECFEFD8E03C
S1130070DEBFCDBF11E0A0E0B1E0E0EFF8E002C0E8
S113008005900D92A433B107D9F721E0A4E3B1E0C0
S113009001C01D92A833B207E1F70E9425040C9415
S11300A076041F920F920FB60F9211242F933F9351
S11300B04F935F936F937F938F939F93AF93BF936C
S11300C0EF93FF9381E00E945F04FF91EF91BF9152
S11300D0AF919F918F917F916F915F914F913F91DC
S11300E02F910F900FBE0F901F9018951F920F9293
S11300F00FB60F9211242F933F934F935F936F93F7
S11301007F938F939F93AF93BF93EF93FF9382E07B
S11301100E945F04FF91EF91BF91AF919F918F91E6
S11301207F916F915F914F913F912F910F900FBEEF
S11301300F901F9018951F920F920FB60F921124D3
S11301402F933F934F935F936F937F938F939F93DB
S1130150AF93BF93EF93FF9383E00E945F04FF91FB
S1130160EF91BF91AF919F918F917F916F915F912B
S11301704F913F912F910F900FBE0F901F901895A4
S11301801F920F920FB60F9211242F933F934F9308
S11301905F936F937F938F939F93AF93BF93EF93EB
S11301A0FF9384E00E945F04FF91EF91BF91AF91B0
S11301B09F918F917F916F915F914F913F912F917B
S11301C00F900FBE0F901F9018951F920F920FB6AD
S11301D00F9211242F933F934F935F936F937F93C9
S11301E08F939F93AF93BF93EF93FF9385E00E9408
S11301F05F04FF91EF91BF91AF919F918F917F9198
S11302006F915F914F913F912F910F900FBE0F907F
S11302101F9018951F920F920FB60F9211242F93CF
S11302203F934F935F936F937F938F939F93AF937A
S1130230BF93EF93FF9386E00E945F04FF91EF91D9
S1130240BF91AF919F918F917F916F915F914F91EA
S11302503F912F910F900FBE0F901F9018951F92F2
S11302600F920FB60F9211242F933F934F935F93E6
S11302706F937F938F939F93AF93BF93EF93FF936A
S113028087E00E945F04FF91EF91BF91AF919F912E
S11302908F917F916F915F914F913F912F910F902B
S11302A00FBE0F901F9018951F920F920FB60F92CA
S11302B011242F933F934F935F936F937F938F9367
S11302C09F93AF93BF93EF93FF9388E00E945F04E3
S11302D0FF91EF91BF91AF919F918F917F916F911A
S11302E05F914F913F912F910F900FBE0F901F90F0
S11302F018951F920F920FB60F9211242F933F93CC
S11303004F935F936F937F938F939F93AF93BF9319
S1130310EF93FF9389E00E945F04FF91EF91BF91F7
S1130320AF919F918F917F916F915F914F913F9189
S11303302F910F900FBE0F901F9018951F920F9240
S11303400FB60F9211242F933F934F935F936F93A4
S11303507F938F939F93AF93BF93EF93FF938AE021
S11303600E945F04FF91EF91BF91AF919F918F9194
S11303707F916F915F914F913F912F910F900FBE9D
S11303800F901F9018951F920F920FB60F92112481
S11303902F933F934F935F936F937F938F939F9389
S11303A0AF93BF93EF93FF938BE00E945F04FF91A1
S11303B0EF91BF91AF919F918F917F916F915F91D9
S11303C04F913F912F910F900FBE0F901F90189552
S11303D01F920F920FB60F9211242F933F934F93B6
S11303E05F936F937F938F939F93AF93BF93EF9399
S11303F0FF938CE00E945F04FF91EF91BF91AF9156
S11304009F918F917F916F915F914F913F912F9128
S11304100F900FBE0F901F9018951F920F920FB65A
S11304200F9211242F933F934F935F936F937F9376
S11304308F939F93AF93BF93EF93FF938DE00E94AD
S11304405F04FF91EF91BF91AF919F918F917F9145
S11304506F915F914F913F912F910F900FBE0F902D
S11304601F9018951F920F920FB60F9211242F937D
S11304703F934F935F936F937F938F939F93AF9328
S1130480BF93EF93FF938EE00E945F04FF91EF917F
S1130490BF91AF919F918F917F916F915F914F9198
S11304A03F912F910F900FBE0F901F9018951F92A0
S11304B00F920FB60F9211242F933F934F935F9394
S11304C06F937F938F939F93AF93BF93EF93FF9318
S11304D08FE00E945F04FF91EF91BF91AF919F91D4
S11304E08F917F916F915F914F913F912F910F90D9
S11304F00FBE0F901F9018951F920F920FB60F9278
S113050011242F933F934F935F936F937F938F9314
S11305109F93AF93BF93EF93FF9380E10E945F0497
S1130520FF91EF91BF91AF919F918F917F916F91C7
S11305305F914F913F912F910F900FBE0F901F909D
S113054018951F920F920FB60F9211242F933F9379
S11305504F935F936F937F938F939F93AF93BF93C7
S1130560EF93FF9381E10E945F04FF91EF91BF91AC
S1130570AF919F918F917F916F915F914F913F9137
S11305802F910F900FBE0F901F9018951F920F92EE
S11305900FB60F9211242F933F934F935F936F9352
S11305A07F938F939F93AF93BF93EF93FF9382E1D6
S11305B00E945F04FF91EF91BF91AF919F918F9142
S11305C07F916F915F914F913F912F910F900FBE4B
S11305D00F901F9018951F920F920FB60F9211242F
S11305E02F933F934F935F936F937F938F939F9337
S11305F0AF93BF93EF93FF9383E10E945F04FF9156
S1130600EF91BF91AF919F918F917F916F915F9186
S11306104F913F912F910F900FBE0F901F901895FF
S11306201F920F920FB60F9211248F93EF93FF93A3
S113063080913401811119C0E0913701F0E0EE0F8F
S1130640FF1FEF5FFE4F808180933501E0913701FA
S1130650F0E0EE0FFF1FEF5FFE4F81818F5F80930D
S1130660360181E08093340103C08BED8093350122
S1130670809135018EBD85E98A95F1F700002C9AA9
S11306808CB580648CBD8CB580688CBD2998FF9135
S1130690EF918F910F900FBE0F901F9018951F929E
S11306A00F920FB60F9211240F900FBE0F901F9050
S11306B018951F920F920FB60F9211248F939F9348
S11306C0EF93FF93CF93DF931F92CDB7DEB78EB531
S11306D089838CB58F778CBD8AE18A95F1F700C048
S11306E08CB58CBD2C98299A80913401813091F578
S11306F080913601882329F08091360181508093BE
S1130700360180913601811125C010923401809107
S113071037018F5F809337019091370180910001F9
S11307209817C0F4E0913701F0E0EE0FFF1FE1509D
S1130730FF4F8181811107C08FE99FE00197F1F795
S113074000C0000006C08FEF99EF0197F1F700C0D9
S1130750000029980F90DF91CF91FF91EF919F9125
S11307608F910F900FBE0F901F9018951F920F92AC
S11307700FB60F9211242F933F934F935F936F9370
S11307807F938F939F93AF93BF93EF93FF9384E1F2
S11307900E945F04FF91EF91BF91AF919F918F9160
S11307A07F916F915F914F913F912F910F900FBE69
S11307B00F901F9018951F920F920FB60F9211244D
S11307C02F933F934F935F936F937F938F939F9355
S11307D0AF93BF93EF93FF9385E10E945F04FF9172
S11307E0EF91BF91AF919F918F917F916F915F91A5
S11307F04F913F912F910F900FBE0F901F9018951E
S11308001F920F920FB60F9211242F933F934F9381
S11308105F936F937F938F939F93AF93BF93EF9364
S1130820FF9386E10E945F04FF91EF91BF91AF9126
S11308309F918F917F916F915F914F913F912F91F4
S11308400F900FBE0F901F90189514B817B81AB8D0
S113085015B818B81BB883E087B9D2E0D4B980E8DA
S11308608AB92998C1E0C8B90E944F040E94530470
S11308708FE291E00E94670452985A9AD0936900DB
S11308808CB58F778CBDCDBB2FEF8BE49DE12150D0
S113089080409040E1F700C000007894FFCF249A94
S11308A08CEA8CBD08951092C50083E08093C40047
S11308B088E18093C10086E08093C2000895E0EC53
S11308C0F0E0908195FFFDCF8093C6000895CF930B
S11308D0DF93EC018881882331F021960E945F0424
S11308E089918111FBCFDF91CF910895F894FFCFC7
S11308F017DB145F0001001000600041003806F8A7
S11309000AF7064E06AD08F80AE40AF80AF80AF8E7
S11309100AF80AF80AF80AF80AF80AF80AF80A4972
S10709204E495400E4
S9030000FC
