S010000056353020746573742E7372656379
S11300000C9434000C945D000C94A1000C945100E9
S11300100C9451000C9451000C9451000C94510018
S11300200C9451000C9451000C9451000C94510008
S11300300C9451000C9451000C9451000C945100F8
S11300400C9451000C94AB000C9408010C94120114
S11300500C941C010C9451000C9451000C9451000C
S11300600C9451000C94510011241FBECFEFD8E022
S1130070DEBFCDBF11E0A0E0B1E0E2EFF2E002C0EC
S113008005900D92A032B107D9F721E0A0E2B1E0CA
S113009001C01D92A432B207E1F70E9426010C941C
S11300A077010C9453001F920F920FB60F921124F4
S11300B00F900FBE0F901F9018951F920F920FB6BE
S11300C00F9211248F93EF93FF938091200181115C
S11300D019C0E0912301F0E0EE0FFF1FEF5FFE4F28
S11300E0808180932101E0912301F0E0EE0FFF1F56
S11300F0EF5FFE4F81818F5F8093220181E08093C7
S1130100200109C02C9A85E38A95F1F700002C9808
S11301108BED80932101809121018EBD85E98A9523
S1130120F1F700008CB580648CBD8CB580688CBD03
S11301302998FF91EF918F910F900FBE0F901F9010
S113014018951F920F920FB60F9211240F900FBEA5
S11301500F901F9018951F920F920FB60F921124B3
S11301602F933F934F935F936F937F938F939F93BB
S1130170AF93BF93EF93FF93CF93DF931F92CDB7CA
S1130180DEB78EB589838CB58F778CBD85E88A956B
S1130190F1F700008CB58CBD80912001813001F510
S11301A0809122018150809322018091220181114A
S11301B016C010922001809123018F5F8093230148
S11301C09091230180910001981750F0299A8FE9AA
S11301D09FE00197F1F700C00000299801C0299A17
S11301E0809122010E9460010F90DF91CF91FF91D5
S11301F0EF91BF91AF919F918F917F916F915F919B
S11302004F913F912F910F900FBE0F901F90189513
S11302101F920F920FB60F9211240F900FBE0F90E2
S11302201F9018951F920F920FB60F9211240F90E2
S11302300FBE0F901F9018951F920F920FB60F923A
S113024011240F900FBE0F901F90189514B817B873
S11302501AB815B818B81BB883E087B9D2E0D4B976
S113026080E88AB92998C1E0C8B90E9450010E9467
S113027054018BE191E00E94680152985A9AD093FC
S113028069008CB58F778CBDCDBB2FEF8BE49DE1DE
S1130290215080409040E1F700C000007894FFCFE7
S11302A0249A8CEA8CBD08951092C50083E3809350
S11302B0C40088E18093C10086E08093C200089561
S11302C0E0ECF0E0908195FFFDCF8093C6000895A7
S11302D0CF93DF93EC018881882331F021960E942B
S11302E0600189918111FBCFDF91CF910895F8943A
S10502F0FFCF3A
S11302F20DDB0A5F0001001000600041003806F8BF
S11303020AF7064E06AD08F80AE40A494E495400B3
S9030000FC
